:020000040800F2
:10000000F006002089010008910100089301000812
:100010009501000897010008990100080000000000
:100020000000000000000000000000009B0100082C
:100030009D010008000000009F010008A1010008C8
:10004000A3010008A3010008A3010008A301000800
:10005000A3010008A3010008A3010008A3010008F0
:10006000A3010008A3010008A3010008A3010008E0
:10007000A3010008A3010008A3010008A3010008D0
:10008000A3010008A3010008A3010008A3010008C0
:10009000A3010008A3010008A3010008A3010008B0
:1000A000A3010008A3010008A3010008A3010008A0
:1000B00079060008A3010008A3010008A3010008B5
:1000C000A3010008A3010008A3010008A301000880
:1000D000A301000889070008A3010008A301000884
:1000E000A3010008A3010008A301000800F002F822
:1000F00000F03AF80AA090E8000C82448344AAF188
:100100000107DA4501D100F02FF8AFF2090EBAE885
:100110000F0013F0010F18BFFB1A43F0010318473B
:10012000B80C0000D80C0000103A24BF78C878C181
:10013000FAD8520724BF30C830C144BF04680C60ED
:10014000704700000023002400250026103A28BF35
:1001500078C1FBD8520728BF30C148BF0B60704739
:100160001FB51FBD10B510BD00F033F81146FFF7E5
:10017000F7FF00F015FD00F051F803B4FFF7F2FFB0
:1001800003BC00F052FC00000948804709480047C2
:10019000FEE7FEE7FEE7FEE7FEE7FEE7FEE7FEE737
:1001A000FEE7FEE704480549054A064B7047000094
:1001B00019060008ED000008F0000020F0060020FD
:1001C000F0020020F002002070477047704770472F
:1001D0007047754600F02CF8AE4605006946534658
:1001E00020F00700854618B020B5FFF7DBFFBDE81B
:1001F00020404FF000064FF000074FF000084FF08E
:10020000000B21F00701AC46ACE8C009ACE8C0091E
:10021000ACE8C009ACE8C0098D46704710B504468B
:10022000AFF300802046BDE81040FFF7A6BF0000F6
:1002300000487047900000202DE9F041024600255B
:100240000026002000230024002791F803C00CF0B2
:100250000F0591F803C00CF0100CBCF1000F03D097
:1002600091F802C04CEA050591F800C0BCF1000FFE
:1002700031D0146800202BE04FF0010C0CFA00F391
:10028000B1F800C00CEA03069E4220D183004FF073
:100290000F0C0CFA03F7BC4305FA03FC4CEA040408
:1002A00091F803C0BCF1280F06D14FF0010C0CFAF5
:1002B00000FCC2F814C00AE091F803C0BCF1480F7A
:1002C00005D14FF0010C0CFA00FCC2F810C0401C24
:1002D0000828D1D31460B1F800C0BCF1FF0F34DDA1
:1002E000546800202EE000F1080C4FF0010808FAD5
:1002F0000CF3B1F800C00CEA03069E4221D1830042
:100300004FF00F0C0CFA03F7BC4305FA03FC4CEA60
:10031000040491F803C0BCF1280F05D100F1080CCA
:1003200008FA0CF8C2F8148091F803C0BCF1480F29
:1003300007D100F1080C4FF0010808FA0CF8C2F8D8
:100340001080401C0828CED35460BDE8F081416184
:10035000704701617047000070B5002100230F2233
:10036000C47804B3154C246804F4E064C4F5E06474
:10037000210AC1F10403CA40447804FA03F18478E5
:100380001440214309010E4C0678A155047804F06D
:100390001F050124AC4005786D11AD0005F1E02585
:1003A000C5F8004109E0047804F01F050124AC40C1
:1003B000044D0678761145F8264070BD0CED00E03E
:1003C00000E400E080E100E002490143024A1160DC
:1003D000704700000000FA050CED00E029B1064A64
:1003E000D2690243044BDA6104E0034AD2698243D2
:1003F000014BDA61704700000010024029B1064A43
:1004000012690243044B1A6104E0034A12698243F1
:10041000014B1A61704700000010024029B1064AE2
:1004200092690243044B9A6104E0034A9269824351
:10043000014B9A61704700000010024029B1064A42
:10044000D2680243044BDA6004E0034AD268824374
:10045000014BDA60704700000010024030B5002107
:100460000022002400232D4D6D6805F00C0121B100
:10047000042905D0082923D105E0294D056022E093
:10048000274D05601FE0254D6D6805F47012234D62
:100490006D6805F48034022505EB92421CB9214DAC
:1004A000554305600BE01D4D6D6805F400351DB129
:1004B0001C4D5543056002E0194D5543056002E0AF
:1004C000174D056000BF00BF144D6D6805F0F001C9
:1004D0000909154D6B5C0568DD4045600F4D6D6881
:1004E00005F4E061090A104D6B5C4568DD408560EC
:1004F0000A4D6D6805F46051C90A0B4D6B5C456887
:10050000DD40C560054D6D6805F44041890B074D20
:100510006B5CC568B5FBF3F5056130BD00100240AA
:1005200000127A0000093D00100000202000002089
:1005300010B500F001F810BD0CB50020019000903E
:100540003348006840F480303149086000BF3048CB
:10055000006800F4003000900198401C0190009861
:1005600018B90198B0F5A06FF1D12948006800F4DE
:10057000003010B10120009001E0002000900098B0
:10058000012843D12348006840F010002149086049
:100590000846006820F0070008600846006840F040
:1005A000020008601A4840681949486008464068D7
:1005B00048600846406840F48060486008464068EB
:1005C00020F47C1048600846406840F4E810486019
:1005D0000846006840F08070086000BF0C48006862
:1005E00000F000700028F9D00948406820F00300AE
:1005F000074948600846406840F00200486000BF74
:100600000348406800F00C000828F9D10CBD000038
:10061000001002400020024010B51348006840F06E
:1006200001001149086008464068104908400E4919
:100630004860084600680E4908400B4908600846B3
:10064000006820F4802008600846406820F4FE001E
:1006500048604FF41F008860FFF76AFF4FF00060AA
:100660000449086010BD0000001002400000FFF8BF
:10067000FFFFF6FE08ED00E010B50121880700F04D
:1006800017F828B10121880700F003F800F038FBC3
:1006900010BDCA430282704721B1028842F00102B4
:1006A000028004E002884FF6FE731A400280704711
:1006B00030B50246002000230024158A05EA010314
:1006C000958905EA010413B10CB1012000E0002076
:1006D00030BD1AB183890B43838102E083898B4348
:1006E00083817047002202881D4B98420ED01D4B1B
:1006F00098420BD0B0F1804F08D01B4B984205D0E8
:100700001A4B984202D01A4B984204D14FF68F737D
:100710001A404B881A43174B984207D0164B984201
:1007200004D04FF6FF431A40CB881A4302808B88CF
:1007300083850B8803850A4B98420BD0094B98425E
:1007400008D00E4B984205D00D4B984202D00D4B6D
:10075000984201D10B7A03860123838270470000FF
:10076000002C01400034014000040040000800401B
:10077000000C004000100040001400400040014008
:10078000004401400048014010B540F226610E4887
:1007900000F086F820B140F226610B4800F016F810
:1007A00040F22551084800F07BF858B140F225513D
:1007B000054800F00BF8044800F02EF9C4B22046BA
:1007C00000F078FA10BD00000038014010B500229A
:1007D000002340F66A14A14200D100BF0A1201248E
:1007E0009440A3B2DC43048010BD21B1828942F45D
:1007F0000052828104E082894DF6FF731A408281A3
:100800007047000010B504462048844209D10121F8
:100810008803FFF713FE00214FF48040FFF70EFE20
:1008200032E01B48844209D101214804FFF7E6FD6C
:1008300000214FF40030FFF7E1FD25E01548844228
:1008400009D101218804FFF7D9FD00214FF4802050
:10085000FFF7D4FD18E01048844209D10121C804F3
:10086000FFF7CCFD00214FF40020FFF7C7FD0BE0A0
:100870000A48844208D101210805FFF7BFFD002185
:100880004FF48010FFF7BAFD10BD000000380140A2
:100890000044004000480040004C00400050004030
:1008A00070B50246002400230025002040F66A1699
:1008B000B14200D100BFC1F3421501F01F03012670
:1008C00006FA03F3012D02D19689334006E0022D8A
:1008D00002D1168A334001E0968A33400C12012679
:1008E00006FA04F41688344013B10CB1012000E07C
:1008F000002070BDF0B5034600240026002500202E
:1009000040F66A17B94200D100BF1846C1F342143D
:1009100001F01F06012707FA06F5012C01D10C3062
:1009200004E0022C01D1103000E014301AB1076845
:100930002F43076002E00768AF430760F0BD000087
:100940002DE9F04786B005460E460024A24600BFBA
:10095000A1460027B08900B100BF2F462C8A4CF673
:10096000FF700440F08804432C82AC894EF6F310EB
:100970000440B08831890843718908430443AC813D
:10098000AC8A4FF6FF400440B0890443AC8201A812
:10099000FFF764FD1F48874202D1DDF810A001E097
:1009A000DDF80CA0A88900F4004040B10AEBCA00B1
:1009B00000EB0A1031684900B0FBF1F807E00AEBE0
:1009C000CA0000EB0A1031688900B0FBF1F864201E
:1009D000B8FBF0F004012009642101FB1089A8890B
:1009E00000F4004040B1322000EBC900B0FBF1F050
:1009F00000F00700044308E0322000EB09106421F6
:100A0000B0FBF1F000F00F0004432C8106B0BDE80C
:100A1000F08700000038014001468888C0F30800D4
:100A20007047C1F3080282807047014600BF7047DB
:100A3000002001490870704700000020014800783C
:100A4000704700000000002010B588B0FFF7F6FFE7
:100A5000002804DDFFF7ECFF0020304908702F4824
:100A6000007820B101281ED0022854D137E000219F
:100A7000684600F0C3F89DE80F001C46CDE9062348
:100A8000CDE90401A04700F085F825490968401A1E
:100A9000B0F5FA7F06D901202049087000F07AF8F5
:100AA0001F49086037E00021684600F0A7F89DE87C
:100AB0000F001446CDE90623CDE90401A04700F05C
:100AC00069F817490968401AB0F5FA7F06D902207B
:100AD0001249087000F05EF8114908601BE000211F
:100AE000684600F08BF89DE80F001C46CDE9062310
:100AF000CDE90401A04700F04DF809490968401A02
:100B0000B0F5FA7F06D901200449087000F042F8D8
:100B10000349086000BF00BF08B010BD01000020FD
:100B20000400002010B500F030F810BD1FB5012101
:100B30000846FFF753FC4FF47A70ADF808004720E1
:100B4000ADF804000020ADF80A00ADF8060001A9D8
:100B50004FF08040FFF7C6FD012211469007FFF7D6
:100B6000B8FD1C208DF8000000208DF80100032046
:100B70008DF8020001208DF803006846FFF7ECFBBA
:100B800001218807FFF788FD1FBD10B5FFF7CEFFD5
:100B900010BD000001480068704700000C000020F4
:100BA0004FF4A060FFF710FCFFF7BCFF00F004F863
:100BB00001E0FFF749FFFCE710B500F05DF800F039
:100BC00001F810BD00200749087007484861074830
:100BD0004860074903488160064901610649C160D0
:100BE0007047000068000020950B0008210D0008E8
:100BF000110D0008DD0C0008ED0C000830B50129CE
:100C000001DB00BFFEE7034A02EB01153CCD80E8A3
:100C10003C0030BD2400002008B501211020FFF762
:100C2000FDFB4FF40050ADF8000010208DF80300DC
:100C300003208DF8020069460448FFF7FDFA4FF4DF
:100C400000510248FFF785FB08BD0000001001407D
:100C500010B54FF400510248FFF779FB10BD0000BA
:100C60000010014010B54FF400510248FFF771FB2E
:100C700010BD00000010014010B5002009490870A7
:100C800009484860094888600948C860002406E0AF
:100C9000044901EB041148688047601CC4B2012C70
:100CA000F6DB10BD24000020190C0008650C0008BC
:100CB000510C00080749084A1288885406490988D7
:100CC000491C3222B1FBF2F302FB1311024A1180DC
:100CD00070470000340000200800002010B50248D2
:100CE000FFF79AFEC0B210BD0038014010B50446AF
:100CF00021460248FFF795FE002010BD0038014054
:100D000002480068401C0149086070470C00002040
:100D100010B50248FFF776FD002010BD00380140F5
:100D200000B587B001218803FFF778FB012104207B
:100D3000FFF774FB18208DF81B004FF40070ADF81E
:100D4000180003208DF81A0006A92148FFF774FA4D
:100D500048208DF81B004FF48060ADF81800032088
:100D60008DF81A0006A91A48FFF766FA4FF41650D4
:100D700002900020ADF814000C20ADF81200002005
:100D8000ADF81000ADF80E00ADF80C0002A9114846
:100D9000FFF7D6FD012240F225510E48FFF7AAFDCC
:100DA0004FF4A060FFF710FB25208DF80400012010
:100DB0008DF807008DF805008DF8060001A8FFF7F3
:100DC000CBFA01210348FFF710FD002007B000BD5A
:100DD0000008014000380140F80D00080000002024
:100DE00024000000280100081C0E00082400002038
:100DF000CC060000440100080000000000000000D4
:100E000000000000000000000000000001020304D8
:0C0E10000102030406070809020406089A
:04000005080000ED02
:00000001FF
